:103A0A00E4FEEF139297D296C296EFC313FF0EEE1F
:033A1A00B408EFFE
:013A1D002286
:10000300E4FFFEEFC313FF3097034480FFD296C291
:06001300960EEEB408EDAC
:0100190022C4
:103A1E00C295C296D295123A0AAF05123A0AD296BA
:033A2E00C295221C
:103A3100C295C296D295123A0A120003D296C29545
:013A41002262
:1038D500900046E0FD7F8C123A1EA3E0541FFD7F49
:1038E50088123A1EA3E0543FFD7F86123A1EA3E0DC
:1038F500543FFD7F84123A1EA3E0547FFD7F821260
:103905003A1EA3E0547FFD7F80123A1EA3E05407C0
:07391500FD7F8A123A1E2219
:1034C1007F8D123A31AD07EDC4540F75F00AA4FF98
:1034D100ED540F2F1215247F89123A31AD07ED54A7
:1034E1001FFFC4540F75F00AA4FFED540F2F900075
:1034F100011215367F87123A31AD07ED543FFFC4F3
:10350100540F75F00AA4FFED540F2F90000212150D
:10351100367F85123A31AD07ED543FFFC4540F7524
:10352100F00AA4FFED540F2F9000031215367F838C
:10353100123A31AD07ED547FFFC4540F75F00AA460
:10354100FFED540F2F9000041215367F81123A318E
:10355100AD07ED547FFFC4540F75F00AA4FFED547D
:103561000F2F9000051215367F89123A31AD07ED04
:1035710054179000011215367F8B123A31AD07EFC7
:083581005407900006121536F4
:01358900221F
:1039BC00123A42122D5CD28E7B017A007939123484
:0A39CC00C1123616122AA480EF2261
:10276E000004AE53000A5748005526BD000D2650F2
:10277E00000D95440046AAB900056A4D0009AD4208
:10278E000024AEB60004AE4A006A4DBE000A4D5299
:10279E00000D2546005D52BA000B544E000D6A43E3
:1027AE0000296D3700095B4B00749BC100049754E0
:1027BE00000A4B48005B25BC0006A5500006D44518
:1027CE00004ADAB80002B64D00095742002497B706
:1027DE000004974A00664B3E000D4A51000EA54676
:1027EE000056D4BA0005AD4E0002B6440039373853
:1027FE0000092E4B007C96BF000C9553000D4A48E5
:10280E00006DA53B000B554F00056A45004AADB95A
:10281E0000025D4D00092D42002C95B6000A954A26
:10282E00007B4ABD0006CA51000B554600555ABBE7
:10283E000004DA4E000A5B4300352BB800052B4C22
:10284E00008A953F000E95520006AA48006AD53CB4
:10285E00000AB54F0004B645004A5739000A574DD5
:10286E0000052642003E9335000D95490075AABE1F
:10287E0000056A5100096D460054AEBB0004AD4F11
:10288E00000A4D43004D26B7000D254B008D52BF5B
:10289E00000B5452000B6A4700696D3C00095B50F7
:1028AE0000049B45004A4BB9000A4B4D00AB25C2B4
:1028BE000006A5540006D449006ADA3D000AB65156
:1028CE0000093746005497BB0004974F00064B444F
:1028DE000036A537000EA54A0086B2BF0005AC53E0
:1028EE00000AB647005936BC00092E50000C96451A
:1028FE00004D4AB8000D4A4C000DA5410025AAB660
:10290E0000056A49007AADBD00025D5200092D47EF
:10291E00005C95BA000A954E000B4A43004B5537A2
:10292E00000AD54A00955ABF0004BA53000A5B4804
:10293E0000652BBC00052B50000A934500474AB991
:10294E000006AA4C000AD5410024DAB60004B64AA5
:10295E000069573D000A4E51000D2646005E933A1F
:10296E00000D534D0005AA430036B53700096D4BD7
:10297E0000B4AEBF0004AD53000A4D48006D25BC37
:10298E00000D254F000D5244005DAA38000B5A4C25
:10299E0000056D410024ADB600049B4A007A4BBE83
:1029AE00000A4B51000AA546005B52BA0006D24EF1
:1029BE00000ADA4200355B370009374B008497C1B5
:1029CE000004975300064B480066A53C000EA54F29
:1029DE000006B244004AB638000AAE4C00092E4238
:1029EE00003C9735000C9649007D4ABD000D4A51BA
:1029FE00000DA5450055AABA00056A4E000A6D43A2
:102A0E0000452EB700052D4B008A95BF000A955341
:102A1E00000B4A47006B553B000AD54F00055A453F
:102A2E00004A5D38000A5B4C00052B42003A93B613
:102A3E0000069349007729BD0006AA51000AD54623
:102A4E000054DABA0004B64E000A57430045273840
:102A5E00000D264A008E933E000D5252000DAA47DD
:102A6E000066B53B00056D4F0004AE45004A4EB9F9
:102A7E00000A4D4C000D1541002D92B5001F1C1F74
:102A8E001E1F1E1F1F1E1F1E1F001F1D1F1E1F1E6F
:062A9E001F1F1E1F1E1F7A
:103705004C00000003030601040602050003055AE8
:10371500000C0000001F003B005A0078009700B520
:0C37250000D400F301110130014E016DD1
:10166100900046EEF0A3EFF0A3ECF0A3EDF0A3EAB7
:04167100F0A3EBF007
:10167500900046E0FEA3E07802C333CE33CED8F91E
:1016850024BAF58274093EF583121629EF5460FFDA
:10169500E4FEFDFC7805121602E47B01FAF9F8C3B5
:1016A5001215F17031900046E0FEA3E07802C333D5
:1016B500CE33CED8F924BAF58274093EF5831216D5
:1016C50029EF541FFFE4EF24FFFEE434FF90004CA4
:1016D500F0A3CEF0802E900046E0FEA3E07802C392
:1016E50033CE33CED8F924BAF58274093EF5831288
:1016F5001629EF541FFFE4EF241EFEE43390004C3F
:10170500F0A3CEF0900048E0FAA3E0FB25E0FFEA65
:1017150033FE740A2FF58274003EF583E0FEA3E0E4
:10172500FF90004AE0FCA3E0FDEF2DFFEE3CCF2447
:10173500FFCF34FF90004EF0A3EFF0900046E0FE9F
:10174500A3E0FF7C007D041215ADED4C7019D3EBC1
:101755009402EA64809480400E90004FE004F0709B
:101765000690004EE004F090004CE0FEA3E0FFA3DD
:10177500E0FCA3E0FDC39FEE6480F8EC6480985024
:101785000302195290004CE0A3E0ED9FFFEC9EA3ED
:10179500F0A3EFF0900048E4F0A304F0900052E4C9
:1017A500F0A304F0E4A3F0A3F0900052E0A3E0144A
:1017B500F9E4FFFE7D08FCA801121615C004C0055A
:1017C500C006C007900046E0FEA3E07802C333CE12
:1017D50033CED8F924BAF58274093EF58312163949
:1017E500D007D006D005D004EB5FFFEA5EFEE95DC9
:1017F500FDE85CFCE4FBFAF9F8C31215F1700A90F8
:101805000050F0A3741DF08009900050E4F0A3741B
:101815001EF0900050E0FEA3E0FF90004EE0FCA318
:10182500E0FDC39FEE6480F8EC64809850030219D4
:101835003BA3E0A3E0ED9FFFEC9E90004EF0A3EFED
:10184500F0900053E004F07006900052E004F09030
:101855000046E0FEA3E07802C333CE33CED8F924A8
:10186500BAF58274093EF583121629E4FFFEED549C
:10187500F0FDE4FC7814121602A804A905AA06AB2B
:1018850007900048E0FEA3E0FFEE3395E0FDFCC3C2
:101895001215F17026900054E0FEA3E0F4FFEEF47B
:1018A500FE900054F0A3EFF04E701E900049E00446
:1018B500F07006900048E004F0800E900049E004C6
:1018C500F07006900048E004F0900052E0A3E014A8
:1018D500F9E4FFFE7D08FCA801121615C004C00539
:1018E500C006C007900046E0FEA3E07802C333CEF1
:1018F50033CED8F924BAF58274093EF58312163928
:10190500D007D006D005D004EB5FFFEA5EFEE95DA7
:10191500FDE85CFCE4FBFAF9F8C31215F1700B90D5
:101925000050F0A3741DF0021817900050E4F0A3C6
:10193500741EF002181790004FE02401FE90004E2F
:10194500E0340090004AF0A3CEF0021B7390004EE5
:10195500E0FEA3E0FFC390004DE09FF090004CE057
:101965009EF0900047E024FFF0900046E034FFF041
:10197500900048E4F0A3740CF0900046E0FEA3E06C
:101985007802C333CE33CED8F924BAF58274093E32
:10199500F583121629E4FFFEED54F0FDE4FC7814FE
:1019A500121602E4FBFAF9F8C31215F1700A900059
:1019B50052F0A3740CF08009900052E4F0A3740D6A
:1019C500F0E4900054F0A3F0900052E0A3E014F985
:1019D500E4FFFE7D08FCA801121615C004C005C071
:1019E50006C007900046E0FEA3E07802C333CE337D
:1019F500CED8F924BAF58274093EF583121639D08A
:101A050007D006D005D004EB5FFFEA5EFEE95DFD79
:101A1500E85CFCE4FBFAF9F8C31215F1700A9000D2
:101A250050F0A3741DF08009900050E4F0A3741EDB
:101A3500F0900050E0FEA3E0FF90004CE0FCA3E036
:101A4500FDD39FEE6480F8EC6480985003021B522E
:101A5500900050E0A3E0ED9FFFEC9E90004CF0A3BA
:101A6500EFF0900053E024FFF0900052E034FFF0D7
:101A7500900054E07002A3E0700E900049E024FF4E
:101A8500F0900048E034FFF0900046E0FEA3E078D7
:101A950002C333CE33CED8F924BAF58274093EF5A4
:101AA50083121629E4FFFEED54F0FDE4FC781412D0
:101AB5001602A804A905AA06AB07900048E0FEA3F4
:101AC500E0FFEE3395E0FDFCC31215F170129000B6
:101AD50054E0FEA3E0F4FFEEF4900054F0A3EFF021
:101AE500900052E0A3E014F9E4FFFE7D08FCA80194
:101AF500121615C004C005C006C007900046E0FEDA
:101B0500A3E07802C333CE33CED8F924BAF5827474
:101B1500093EF583121639D007D006D005D004EB5F
:101B25005FFFEA5EFEE95DFDE85CFCE4FBFAF9F8BF
:101B3500C31215F1700B900050F0A3741DF0021A3A
:101B450036900050E4F0A3741EF0021A3690004C53
:101B5500E0FEA3E0FFC3900051E09FFF900050E03E
:101B65009ECF2401CF340090004AF0A3EFF09000FF
:101B75004AE0A3E0900059F0900048E0A3E090000F
:101B850058F0900046E0FEA3E0FF900056EEF0A36B
:101B9500EFF07802C333CE33CED8F924BAF5827488
:101BA500093EF583121629E4FFFEED54F0FDE4FC31
:101BB5007814121602A804A905AA06AB07900048D6
:101BC500E0FEA3E0FFEE3395E0FDFCC31215F170D6
:101BD5000990005AF0A304F08007E490005AF0A39E
:071BE500F07B017A00795644
:011BEC0022D6
:10397F00EF54037009EF75F06484E5F0700D7E006D
:0F398F007C017D90121558ED4C7002D322C3229B
:0B317000900046EFF0A3EDF0A3EBF0A1
:10317B00E490004AF0A3F0900046E0FFC4540F75B2
:10318B00F00AA4FEEF540F2EF024D0FEE434079087
:10319B00004CF0A3CEF0900047E0FFC4540F75F045
:1031AB000AA4FEEF540F2EF0A3E0FFC4540F75F0EA
:1031BB000AA4FEEF540F2EF0A37401F0900047E029
:1031CB0014FF900049E0FED3EF6480F8EE64809822
:1031DB00504F900046E0FF12397FE433902A8A75F6
:1031EB00F00D121655E475F00DA42583F583C083FD
:1031FB00C082900049E0FF3395E0FED082D083E59A
:10320B00822FF582E5833EF583E493FF90004BE03C
:10321B002FF090004AE03400F0900049E004F08079
:10322B009B900048E024FFFFE434FFFE90004BE04E
:10323B002FF090004AE03EF090004DE024FFFD900F
:10324B00004CE034FFFCEDAE047802CEC313CE137A
:10325B00D8F92DFBEC3EFA90004DE024FFFF9000D7
:10326B004CE034FFFE7C007D64121558C3EB9FFBD2
:10327B00EA9EFAA3E024FFFF90004CE034FFFE7CB3
:10328B00017D90121558EF2BFFEE3AFE90004BE0AC
:10329B002FFF90004AE03EFE7C007D07121558ED93
:0232AB0004FF1E
:0132AD0022FE
:10001E003A0001020408102040804020100CE32218
:10002E002222FE22222222020000040404040704DB
:10003E000404FF040404040404000000000000FF94
:10004E001111111111FF00000000004020100C03CF
:10005E0001010121413F00000000000000FE42426C
:10006E004242424242FE000000000000003F1010DB
:10007E0010101010103F0000000000FC4444FC2043
:10008E002424243F24E424242000001F08081F01F8
:10009E0001051941817F010101008040209887826E
:1000AE0080808384983060C0400000804020100F14
:1000BE00000020403F00000000001212D2FE9111FD
:1000CE00C0381000FF0008106000040300FF00831A
:1000DE0080404020231008040300101091D6309861
:1000EE00000808F8080808FC0800020100FF018259
:1000FE00402018074080403F0000008080808080B4
:10010E0080808080808080C0800000000000000021
:10011E0000000000000000000000000004040404C1
:10012E000404040404060400000000101010101053
:10013E001010101010101018100000048484848405
:10014E008484848484848404000000202020202061
:10015E002020202020202020200000FE020202FE6F
:10016E000202FE02020202FE0000007F282423206B
:10017E00202021222222227F0000000282828282FF
:10018E00FE828282C2820200000020202020203FB8
:10019E00202020203F202030200010101010109121
:1001AE00121E9410101010101000004020100C039E
:1001BE0001000001020C7830000000404040404039
:1001CE0040FE202020202020200000000000000003
:1001DE00003F404040404038000000000000807C5E
:1001EE000800007E840000000000201008060100B8
:1001FE0000000000010618301000001010101090C2
:10020E007F101010F81000000000004020100C03AA
:10021E00000000007F4040782000404040404040B9
:10022E0040FF4040404040404000000000000000C1
:10023E00007F00000000000000000020180888E881
:10024E001F6A880888C8A81C080008040241FF40DD
:10025E00201001020D18702020000000FE02222244
:10026E002222FA222222E202020040300F00402017
:10027E001806010020603F000000000000BE2A2A80
:10028E002AEA2A2A2A2A3E00000000484641494905
:10029E00497F49494949494140000004FF5454549B
:1002AE00FF0400FE222222FE000042221B02020A4E
:1002BE00336218070222423F0000000202C202020D
:1002CE0002FE828282C2830200004040407F404094
:1002DE00407F404040404060400000002010081722
:1002EE00A444A4940C04000000000404020201259E
:1002FE002448488001010206020000FE2222FF422D
:10030E0048487F48487FC8684000403F0282FF004F
:10031E0000FF49494949FF01000000060909E6F0BE
:10032E001808080818307800000000000000070FB9
:10033E001830202020100800000020202020FE2051
:10034E0020202020FE202030200000000000FF4052
:10035E0040404040FF0000000000221408F44221FB
:10036E00F817D2929292DF9210000442817F000021
:10037E00FF8544241F2444C6440008284888681872
:10038E0000FC061544847E040000100806010214C9
:10039E00101312121A52827F020000221408F40364
:1003AE0020988F88C88808FC0800084482413F00C6
:1003BE00001F08084F80403F000040221408F4023E
:1003CE0025A4643F342CA4322000080442817F020D
:1003DE0001FF49494949FF01000000BE2AAA292907
:1003EE00E022AA2A2AAA3F020000407F20240940C8
:1003FE007F202409001F6080E0000040300E0808B6
:10040E0008FF0808080C0880000001010101010125
:10041E0001FF01010101010101000000F8484848F7
:10042E00F84F4A2A2B0AA818000080403F80403C13
:10043E000405057F858181E000002010F814131259
:10044E0012F21A161210F8100000008083412119C2
:10045E0007013F4145594340700010101010109095
:10046E007F10F0121410D0181000008040300C23B2
:10047E0020103F4442414040780000F010FF10F041
:10048E002018C8090E08882818002067221F123B62
:10049E0000003F4442414140700000000202FA0257
:1004AE0002020202FF020080000008080808090983
:1004BE00090909094D89413F010000088888898A88
:1004CE008CF88C8A89C88C0800000808080808086F
:1004DE0008FF08080808080C08000000FC84A4A403
:1004EE00A4A5FEA4A4A4F4A6840040300F808242EA
:1004FE00221A071A222247C04000404044444C743E
:10050E0045C644645C464460400000040404040490
:10051E0004FF0404040406040000000004040404A0
:10052E0004FC04020203028000000101414141412A
:10053E00417F414141614101010000804A32928A6E
:10054E0086808798A4528880800001808444442449
:10055E00140F14142466C40100000000FE2222228F
:10056E0022FE22222222FF020000000007020202C7
:10057E0002FF0202020207000000000404040484C9
:10058E004424140C040000000000000038464140D2
:10059E00404040404040407800000404C44444447D
:1005AE0044FC44444444E44604000000FF001008A8
:1005BE000403020458807F000000000404040404B5
:1005CE0004FC0404040406040000000000000040C3
:1005DE00807F00000000000000000000F8080808FE
:1005EE0008087F880A0C08C8000040300F00000081
:1005FE00404020131C244380E0000002F24242429D
:10060E004242424242FF0200000000003F40404092
:10061E00404040404040407800000000F888888804
:10062E0088FF88888888FC08000000001F080808DA
:10063E0008FF080808081F0000000202F21212FE4E
:10064E00121212FE1212FA1302000000FF444A495F
:10065E004848484D4941FF0000000000F80808884E
:10066E0008087F880A0C08C8000040300F010101FD
:10067E00414020131C244380E000080808088848E5
:10068E00291E88486808080C0800008090514925EA
:10069E002311080C122340C00000808082828282C7
:1006AE0082E2A2928A8680C0800000000000004094
:1006BE00807F0000000000000000000002828282A5
:1006CE00FE82828282FF0200000040404040407F56
:1006DE0040404040407F40604000100CA4A4A4A4C1
:1006EE00A5E6A4A4A4B4A4140C0000804F4A2A2AA0
:1006FE000A0F0A2A2A4A4F8000000000FC04020357
:10070E00FA0000FC040404FE0400004047242212F8
:10071E000F0000FF0204080700000000FE929292F4
:10072E00929292929A93C280000040300F0000FF86
:10073E004023040814122060200000FE4242424270
:10074E00424242424242FF020000003F40404040CF
:10075E004040404040404040700000402018070498
:10076E0004FC0404040604800000010101010101DF
:10077E0001FF01010101010101008088888888883C
:10078E0088FF888888888CC88000002010080402A2
:10079E0001FF0102040810301000000000000000EC
:1007AE0000000000000000000000000038FCFC38D3
:1007BE0000000000000D0D000000000E1E00001EC7
:1007CE000E00000000000000000020F8F820F8F8ED
:1007DE002000020F0F020F0F0200387C444747CC57
:1007EE0098000306041C1C07030030300080C06014
:1007FE0030000C060301000C0C0080D87CE4BCD841
:10080E004000070F0808070F080000101E0E00001A
:10081E00000000000000000000000000F0F80C04D2
:10082E000000000003070C0800000000040CF8F0A4
:10083E0000000000080C0703000080A0E0C0C0E02C
:10084E00A0800002030101030200008080E0E0802E
:10085E008000000000030300000000000000000004
:10086E0000000000101E0E0000008080808080803E
:10087E0080000000000000000000000000000000EA
:10088E0000000000000C0C00000000000080C060A2
:10089E0030000C06030100000000F8FC04C424FC28
:1008AE00F800070F0908080F0700001018FCFC00DD
:1008BE0000000008080F0F080800080C84C4643CF0
:1008CE0018000E0F0908080C0C00080C444444FCD8
:1008DE00B800040C0808080F0700C0E0B098FCFC34
:1008EE008000000000080F0F08007C7C4444C4C444
:1008FE008400040C0808080F0700F0F84C4444C0AC
:10090E008000070F0808080F07000C0C0484C47C35
:10091E003C0000000F0F00000000B8FC444444FCF3
:10092E00B800070F0808080F0700387C444444FC41
:10093E00F800000808080C07030000000030300023
:10094E00000000000006060000000000003030002D
:10095E0000000000080E060000000080C060301885
:10096E00080000000103060C0800404040404040D3
:10097E00400002020202020202000008183060C0AB
:10098E00800000080C0603010000181C04C4E43C9F
:10099E0018000000000D0D000000F0F808C8C8F89F
:1009AE00F000070F080B0B0B0100E0F0988C98F08D
:1009BE00E0000F0F0000000F0F0004FCFC4444FC8D
:1009CE00B800080F0F08080F0700F0F80C04040C0D
:1009DE00180003070C08080C060004FCFC040CF8B5
:1009EE00F000080F0F080C07030004FCFC44E40C95
:1009FE001C00080F0F08080C0E0004FCFC44E40C4D
:100A0E001C00080F0F0800000000F0F80C84848C06
:100A1E00980003070C0808070F00FCFC404040FC40
:100A2E00FC000F0F0000000F0F00000004FCFC0480
:100A3E0000000000080F0F08000000000004FCFC7E
:100A4E000400070F08080F07000004FCFCC0F03C70
:100A5E000C00080F0F00010F0E0004FCFC04000038
:100A6E000000080F0F08080C0E00FCFC387038FC54
:100A7E00FC000F0F0000000F0F00FCFC3870E0FCB4
:100A8E00FC000F0F0000000F0F00F0F80C040CF824
:100A9E00F00003070C080C07030004FCFC44447C24
:100AAE003800080F0F0800000000F8FC040404FCD6
:100ABE00F800070F080E3C3F270004FCFC44C4FC62
:100ACE003800080F0F00000F0F00183C6444C49C40
:100ADE001800060E0808080F0700001C0CFCFC0C82
:100AEE001C000000080F0F080000FCFC000000FCBA
:100AFE00FC00070F0808080F0700FCFC000000FCB4
:100B0E00FC000103060C06030100FCFC008000FC47
:100B1E00FC00030F0E030E0F03000C3CF0C0F03C64
:100B2E000C000C0F0300030F0C00003C7CC0C07CBB
:100B3E003C000000080F0F0800001C0C84C4643C2D
:100B4E001C000E0F0908080C0E000000FCFC04042B
:100B5E00000000000F0F080800003870E0C0800091
:100B6E0000000000000103070E0000000404FCFC5E
:100B7E000000000008080F0F0000080C0603060C0A
:100B8E00080000000000000000000000000000004F
:100B9E000000202020202020202000000307040039
:100BAE000000000000000000000000A0A0A0E0C0B7
:100BBE000000070F0808070F080004FCFC2060C0A7
:100BCE008000080F0708080F0700C0E020202060F3
:100BDE004000070F0808080C040080C06024FCFCCD
:100BEE000000070F0808070F0800C0E0A0A0A0E053
:100BFE00C000070F0808080C040040F8FC440C184D
:100C0E000000080F0F0800000000C0E02020C0E028
:100C1E002000276F48487F3F000004FCFC4020E086
:100C2E00C000080F0F00000F0F00000020ECEC00BA
:100C3E0000000000080F0F0800000000000020EC6C
:100C4E00EC0000307040407F3F0004FCFC80C06030
:100C5E002000080F0F01030E0C00000004FCFC0026
:100C6E0000000000080F0F080000E0E060C060E028
:100C7E00C0000F0F000F000F0F0020E0C02020E07B
:100C8E00C000000F0F00000F0F00C0E0202020E07A
:100C9E00C000070F0808080F070020E0C02020E062
:100CAE00C000407F7F48080F0700C0E02020C0E052
:100CBE002000070F08487F7F400020E0C0602060C2
:100CCE00C000080F0F080000000040E0A0202060C8
:100CDE004000040C09090B0E04002020F8FC202013
:100CEE0000000000070F080C0400E0E00000E0E048
:100CFE000000070F0808070F080000E0E00000E002
:100D0E00E0000003070C0C070300E0E0000000E029
:100D1E00E000070F0C070C0F07002060C080C060BA
:100D2E002000080C0703070C0800E0E0000000E0BC
:100D3E00E000474F4848683F1F00606020A0E06019
:100D4E0020000C0E0B09080C0C00004040F8BC04EF
:100D5E000400000000070F080800000000BCBC00E3
:100D6E0000000000000F0F000000000404BCF8405B
:100D7E0040000008080F07000000080C040C080CC7
:100D8E000400000000000000000080C0603060C061
:100D9E00800007070404040707000000000080C05D
:100DAE00C0C0C0C0C0800000000000F0FEFF0F01F8
:100DBE0000000000010FFFFEF000001F7FFFE000AB
:100DCE000000000000E0FFFF1F000000000103070D
:100DDE0006060606070301000000000000000000E2
:100DEE000000C0C00000000000000000000C0C0C51
:100DFE000EFFFFFF000000000000000000000000DA
:100E0E0000FFFFFF000000000000000000000000D7
:100E1E00000707070000000000000000000000802F
:100E2E00C0C0C0C0C080000000000000003C3F3FBA
:100E3E0003000000C1FFFF7E0000000000C0E0F0D4
:100E4E00781C0E07030100000000000007070706CC
:100E5E00060606060606060600000000000080C014
:100E6E00C0C0C0C080800000000000000C0F0F0347
:100E7E00008080C1FF7F3E0000000070F0F0800017
:100E8E000001010387FFFEFC0000000001030307C1
:100E9E000606060603030100000000000000000025
:100EAE00000080C0C0C00000000000000080E0F024
:100EBE003C0E07FFFFFF00000000001C1E1F19184C
:100ECE00181818FFFFFF1818180000000000000087
:100EDE0000000007070700000000000000C0C0C0AF
:100EEE00C0C0C0C0C0C0C00000000000F8FFCFC02E
:100EFE00606060E0E0C08000000000E0E1E1000022
:100F0E000000000001FFFF7E000000000307070E37
:100F1E000C0C0C0E07070100000000000000008002
:100F2E0080C0C0C0C0C0800000000000F0FCFF8F79
:100F3E00C1606060E0E1C787060000003FFFFF81EF
:100F4E00000000000081FFFF7E0000000000010392
:100F5E00070606060707030100000000C0C0C0C058
:100F6E00C0C0C0C0C0C0C0C0000000000000000073
:100F7E00000000E0FEFF1F03000000000000000064
:100F8E00C0F8FF3F07000000000000000000000650
:100F9E00070701000000000000000000000080C0F4
:100FAE00C0C0C0C080000000000000003E7FFFC136
:100FBE00808080C1FF7F3E00000000F8FEFE8703A8
:100FCE000101010387FEFEF8000000000103030784
:100FDE00060606070303010000000000000080C0A3
:100FEE00C0C0C0C0C080000000000000FCFFFF8336
:100FFE00010000000183FFFEF8000000C0C1C3071E
:10100E000606060683E1FF7F1F00000000010307AE
:10101E0006060607030301000000000000000000A2
:10102E0000000000000000000000000000000000B2
:10103E0000000000000000000000000000000000A2
:10104E000000000000000000000000000000000092
:10105E0000000000000000000000001F1C1F1E1FEB
:10106E001E1F1F1E1F1E1F001F1D1F1E1F1E1F1FA8
:04107E001E1F1E1FF4
:103731004100400041002F004100410041003000A4
:10374100410043004100370041004400410038007E
:10375100410045004100420041002700C18BC1806A
:10376100C189C187C181C18A41002600C104C10844
:02377100C1068F
:0B3A5200EF1FAC0670011E4C70F62246
:1039D600EF14600C14600E2402700EC2A1C2A02265
:0A39E600D2A1C2A022C2A1D2A022E9
:103957007580FFD2A3C2A2D2A4D2A4C2A47580FF4D
:10396700D2A3C2A2D2A4AF807580FFEF30E703D302
:073977008001C350F1C2A45E
:01397E002226
:0B3A5D00D2A2C2A38F80D2A4C2A42278
:0B3A6800C2A2C2A38F80D2A4C2A4227D
:10399E001239577580FFD2A2D2A3D2A4D2A4C2A448
:0D39AE007580FFD2A2D2A3D2A4AF80C2A424
:0139BB0022E9
:1039F000C2A57F327E00123A52D2A5E4FF1239D618
:0A3A00007F3E123A680F123A682266
:083A7300EF24B8FF123A6822AB
:083A7B00EF2440FF123A68221B
:083A8300EF24C0FF123A682293
:10391C00E4FF1239D6E4FDFC7F3F123A68AF051282
:10392C003A737F40123A68E4FF123A83E4FBFAE4FC
:10393C00FF123A5D0BBB00010AEB64404A70F00DBC
:0A394C00BD00010CED64084C70CEC4
:01395600224E
:0233D600A90745
:1033D800C3E9648094C050657F011239D6ED75F059
:1033E800081214D5FF123A73AF01123A7B12399EB4
:1033F800AE07300E1FED75F0081214D5AFF0EFFBD5
:103408003395E0FA74202BF58274003AF583E4933F
:103418004EFE801EED75F0081214D5AFF0EFFB33A9
:1034280095E0FA74202BF58274003AF583E493F45E
:103438005EFEAF01123A7BAF06123A5D22E9FB331A
:1034480095E0FAC3EB9480EA64809480506A7F0226
:103458001239D6ED75F0081214D5FF123A73E92423
:10346800C0FF123A7B12399EAE07300E1FED75F081
:10347800081214D5AFF0EFFB3395E0FA74202BF562
:103488008274003AF583E4934EFE8020AF05EF7511
:10349800F0081214D5AFF0EFFD3395E0FC74202D41
:1034A800F58274003CF583E493F45EFEE924C0FFE2
:0834B800123A7BAF06123A5DE7
:0134C00022E9
:0F30260090004BEDF090004AEFF090004CEBF073
:103035006F705CA3E0FF90004BE0FED39F402590AE
:10304500004AE0FD90004FF090004CE090004AF0FF
:1030550090004CEDF090004FEEF090004BEFF090AB
:10306500004DEEF090004BE090004EF090004DE0EA
:10307500FFA3E0FDD39F400302316F90004AE0FFBC
:10308500A20D920E1233D690004EE004F080DD9032
:10309500004CE0FF90004AE0FED39F402590004F92
:1030A500EEF090004AEFF090004CEEF090004BE00F
:1030B500FF90004FF090004DE090004BF090004DD8
:1030C500EFF090004AE0FF90004CE0C39FFDE494D0
:1030D50000FCE4121325C004C005C006C00790001B
:1030E5004BE0FF90004DE0C39FFDE49400FCE4122B
:1030F5001325D003D002D001D000121283900050C6
:10310500121649E490004EF090004AE0FF90004C02
:10311500E0C39FFE90004EE0C39E504EE0FCEF2CB6
:10312500FFC007E412132A900050E0F8A3E0F9A3CA
:10313500E0FAA3E0FB12117AC004C005C006C0077F
:1031450090004BE0FCE412132AD003D002D001D04A
:103155000012108912135EAD07A20D920ED0071250
:0A31650033D690004EE004F0809E87
:01316F00223D
:10377400900047EDF0900046EFF0900048EBF09099
:103784000047E0FD90004DF0A20C920D12302690FF
:103794000048E0FBFF900047E0FD900049E0900006
:1037A4004DF0A20C920D123026900048E0FFA3E0E9
:1037B400FD900046E0FB90004DEDF0A20C920D123E
:1037C4003026900046E0FBFF900049E0FD90004762
:0D37D400E090004DF0A20C920D1230262264
:0C201D00900046EFF0900048EBF0A905A1
:10202900E4FD900048E0FFEDC39F40030223FAE47A
:10203900FCED75F010A4FFE97A002FFFEA35F0FEF8
:10204900EC2FFFEA3EFEC3EF9440EE64809480409B
:10205900030221237F011239D67F3F123A6890008B
:1020690046E0FF123A73E4FF123A83EDC454F029B3
:102079002CFF123A7B300D4E300C24ED75F020A464
:10208900FFEC2FFFEA35F0FE900049E0FAA3E02FBC
:10209900F582EA3EF583E493FF123A5D022208EDE8
:1020A90075F020A4FFEC7A002FFFEA35F0FE9000CE
:1020B90049E0FAA3E02FF582EA3EF583E493F4FFC1
:1020C900123A5D022208300C28ED75F020A4FFECCD
:1020D9007A002FFFEA35F0FE900049E0FAA3E02FDD
:1020E900F582EA3EF583E4934401FF123A5D022248
:1020F90008ED75F020A4FFEC7A002FFFEA35F0FE19
:10210900900049E0FAA3E02FF582EA3EF583E493D3
:10211900F44401FF123A5D022208ED75F010A4FFA4
:10212900E97A002FFFEA35F0FEEC2FFFEA3EFEC305
:10213900EF9480EE6480948040030222087F0212AB
:1021490039D67F3F123A68900046E0FF123A73E4AD
:10215900FF123A83EDC454F0292C24C0FF123A7BB4
:10216900300D4C300C23ED75F020A4FFEC2FFFEA65
:1021790035F0FE900049E0FAA3E02FF582EA3EF53A
:1021890083E493FF123A5D8076ED75F020A4FFECAD
:102199007A002FFFEA35F0FE900049E0FAA3E02F1C
:1021A900F582EA3EF583E493F4FF123A5D805030FC
:1021B9000C27ED75F020A4FFEC7A002FFFEA35F02B
:1021C900FE900049E0FAA3E02FF582EA3EF583E4A8
:1021D900934401FF123A5D8026ED75F020A4FFECCF
:1021E9007A002FFFEA35F0FE900049E0FAA3E02FCC
:1021F900F582EA3EF583E493F44401FF123A5D0C5B
:10220900EC6410600302203A7C10EDC454F0292CD0
:1022190024F0C394404003022303900046E02401C4
:10222900FFE433FEC3EF9408EE6480948040030218
:1022390023ED7F011239D67F3F123A68E004FF127D
:102249003A73E4FF123A83EDC454F0292C24F0FFC9
:10225900123A7B300E50300C26ED75F020A4FFECBD
:102269007A002FFFEA35F0FE900049E0FAA3E02F4B
:10227900F582EA3EF583E493FF123A5D0223EDED20
:1022890075F020A4FFEC7A002FFFEA35F0FE9000EC
:1022990049E0FAA3E02FF582EA3EF583E493F4FFDF
:1022A900123A5D0223ED300C28ED75F020A4FFEC05
:1022B9007A002FFFEA35F0FE900049E0FAA3E02FFB
:1022C900F582EA3EF583E4934480FF123A5D0223E6
:1022D900EDED75F020A4FFEC7A002FFFEA35F0FE52
:1022E900900049E0FAA3E02FF582EA3EF583E493F2
:1022F900F44480FF123A5D0223EDEDC454F0292C19
:1023090024F0C3947F40030223ED900046E02401AA
:10231900FFE433FEC3EF9408EE6480948040030227
:1023290023ED7F021239D67F3F123A68E004FF128B
:102339003A73E4FF123A83EDC454F0292C24B0FF18
:10234900123A7B300E4E300C25ED75F020A4FFECCF
:102359007A002FFFEA35F0FE900049E0FAA3E02F5A
:10236900F582EA3EF583E493FF123A5D8076ED75D6
:10237900F020A4FFEC7A002FFFEA35F0FE90004927
:10238900E0FAA3E02FF582EA3EF583E493F4FF1225
:102399003A5D8050300C27ED75F020A4FFEC7A00EF
:1023A9002FFFEA35F0FE900049E0FAA3E02FF5820D
:1023B900EA3EF583E4934480FF123A5D8026ED7589
:1023C900F020A4FFEC7A002FFFEA35F0FE900049D7
:1023D900E0FAA3E02FF582EA3EF583E493F4448022
:1023E900FF123A5D0CEC642060030222130D0220F7
:0123F9002BB8
:0123FA0022C0
:0B1BED00900048EFF0A3EDF0A3EBF038
:101BF800E4900050F090004AE0FF900050E0FEC3EF
:101C08009F400302201C90004DE0FBA3E0FAA3E0F4
:101C1800F98E827583001214F724E0FDE4FC90002D
:101C280050E075F008A4FF900049E0F97A002FFF12
:101C3800EA35F0FEEC2FFFEA3EFEC3EF9440EE6477
:101C48008094804003021D1F7F011239D67F3F1206
:101C58003A68900048E0FF123A73E4FF123A839022
:101C68000050E075F008A4FF900049E02F2CFF1207
:101C78003A7B30104E300F24ED75F010A4FFEC2F96
:101C8800FFEA35F0FE90004BE0FAA3E02FF582EA78
:101C98003EF583E493FF123A5D021E10ED75F010D5
:101CA800A4FFEC7A002FFFEA35F0FE90004BE0FA33
:101CB800A3E02FF582EA3EF583E493F4FF123A5D40
:101CC800021E10300F28ED75F010A4FFEC7A002FDB
:101CD800FFEA35F0FE90004BE0FAA3E02FF582EA28
:101CE8003EF583E4934401FF123A5D021E10ED7540
:101CF800F010A4FFEC7A002FFFEA35F0FE90004BBD
:101D0800E0FAA3E02FF582EA3EF583E493F4440178
:101D1800FF123A5D021E10900050E075F008A4FF13
:101D2800E97A002FFFEA35F0FEEC2FFFEA3EFEC30A
:101D3800EF9480EE648094804003021E107F0212AC
:101D480039D67F3F123A68900048E0FF123A73E4B0
:101D5800FF123A83900050E075F008A4FF90004904
:101D6800E02F2C24C0FF123A7B30104C300F23EDAB
:101D780075F010A4FFEC2FFFEA35F0FE90004BE061
:101D8800FAA3E02FF582EA3EF583E493FF123A5D69
:101D98008076ED75F010A4FFEC7A002FFFEA35F09D
:101DA800FE90004BE0FAA3E02FF582EA3EF583E4CB
:101DB80093F4FF123A5D8050300F27ED75F010A4B0
:101DC800FFEC7A002FFFEA35F0FE90004BE0FAA313
:101DD800E02FF582EA3EF583E4934401FF123A5D71
:101DE8008026ED75F010A4FFEC7A002FFFEA35F09D
:101DF800FE90004BE0FAA3E02FF582EA3EF583E47B
:101E080093F44401FF123A5D0CEC64086003021C71
:101E1800267C08900050E075F008A4FF900049E087
:101E28002F2C24F8F9C394404003021F1E90004849
:101E3800E02401FFE433FEC3EF9408EE648094804D
:101E4800400302200A7F011239D67F3F123A68E028
:101E580004FF123A73E4FF123A83900050E075F0E1
:101E680008A4FF900049E02F2C24F8FF123A7B3099
:101E78001150300F26ED75F010A4FFEC7A002FFFFB
:101E8800EA35F0FE90004BE0FAA3E02FF582EA3E37
:101E9800F583E493FF123A5D02200AED75F010A471
:101EA800FFEC7A002FFFEA35F0FE90004BE0FAA332
:101EB800E02FF582EA3EF583E493F4FF123A5D02DF
:101EC800200A300F28ED75F010A4FFEC7A002FFFE0
:101ED800EA35F0FE90004BE0FAA3E02FF582EA3EE7
:101EE800F583E4934480FF123A5D02200AED75F011
:101EF80010A4FFEC7A002FFFEA35F0FE90004BE0CB
:101F0800FAA3E02FF582EA3EF583E493F44480FFD8
:101F1800123A5D02200AE9C39480400302200A9025
:101F28000048E02401FFE433FEC3EF9408EE648028
:101F38009480400302200A7F021239D67F3F123A6A
:101F480068E004FF123A73E4FF123A83900050E00D
:101F580075F008A4FF900049E02F2C24B8FF123A2E
:101F68007B30114E300F25ED75F010A4FFEC7A0090
:101F78002FFFEA35F0FE90004BE0FAA3E02FF58240
:101F8800EA3EF583E493FF123A5D8076ED75F01032
:101F9800A4FFEC7A002FFFEA35F0FE90004BE0FA40
:101FA800A3E02FF582EA3EF583E493F4FF123A5D4D
:101FB8008050300F27ED75F010A4FFEC7A002FFF4A
:101FC800EA35F0FE90004BE0FAA3E02FF582EA3EF6
:101FD800F583E4934480FF123A5D8026ED75F01096
:101FE800A4FFEC7A002FFFEA35F0FE90004BE0FAF0
:101FF800A3E02FF582EA3EF583E493F44480FF12D0
:102008003A5D0CEC64106003021E1B900050E00463
:04201800F0021BFDBA
:01201C0022A1
:022ECC00A90754
:102ECE00900046EDF0A3F0A3F07F011239D6AF05C6
:102EDE00123A7BAF01123A73E4FEEDC394404012F6
:102EEE007F021239D6ED543FFDFF123A7BAF01122D
:102EFE003A73300C0C8B828A83E493FF123A5D8016
:102F0E000B8B828A83E493F4FF123A5D0BBB0001B4
:102F1E000A0D0EEEB410C37F011239D6E904FF126A
:102F2E003A73900046E0FDFF123A7BE4FEEDC39447
:102F3E004040137F021239D6ED543FFDFF123A7B0B
:102F4E00E904FF123A73300C0C8B828A83E493FFF0
:102F5E00123A5D800B8B828A83E493F4FF123A5D02
:102F6E000BBB00010A0D0EEEB410C27F011239D652
:102F7E00E92402FF123A73900047E0FDFF123A7BFC
:102F8E00E4FEEDC3944040147F021239D6ED543F57
:102F9E00FDFF123A7BE92402FF123A73300C0C8BC0
:102FAE00828A83E493FF123A5D800B8B828A83E4DC
:102FBE0093F4FF123A5D0BBB00010A0D0EEEB41036
:102FCE00C17F011239D6E92403FF123A73900048EB
:102FDE00E0FDFF123A7BE4FEEDC3944040147F0205
:102FEE001239D6ED543FFDFF123A7BE92403FF124E
:102FFE003A73300C0C8B828A83E493FF123A5D8015
:10300E000B8B828A83E493F4FF123A5D0BBB0001B3
:07301E000A0D0EEEB410C113
:013025002288
:1032AE00AEB0EE20E42E900041E0C394015002E453
:1032BE00F090002FE004F0E0FDB4010A900040E031
:1032CE004410F0E4A3F0EDD39401403690002F7437
:1032DE0001F0802E90002FE0C394015002E4F09094
:1032EE000041E004F0E0FDB4010C900040E054EF2A
:1032FE00F0E490002FF0EDD394014006900041745D
:10330E0001F0EE20E530900043E0C394015002E45A
:10331E00F0900030E004F0E0FFB4010C900040E0CB
:10332E004420F0E4900043F0EFD394014036900037
:10333E00307401F0802E900030E0C394015002E40E
:10334E00F0900043E004F0E0FFB4010C900040E088
:10335E0054DFF0E4900030F0EFD39401400690007B
:10336E00437401F0AF06EE20E62F900044E0C394C4
:10337E00015002E4F0900037E004F0E0FFB4010CDD
:10338E00900040E04440F0E4900044F0EFD394010C
:10339E0040359000377401F022900037E0C394015D
:1033AE005002E4F0900044E004F0E0FFB4010C9011
:1033BE000040E054BFF0E4900037F0EFD3940140AA
:0733CE00069000447401F0B9
:0133D50022D5
:02388600AC078D
:10388800EF75F00A1214D52430900046F0AF04EF1B
:1038980075F00A1214D5AFF0EF2430900047F0AF5E
:1038A80005AE03AD0690004B7407F0A374A8F0A30F
:1038B8007401F0A37400F0A37446F0A20C920FA256
:0C38C8000D9210A20E92117B02121BED5B
:0138D40022D1
:1023FB007F89123A31EF541FFEC4540F75F00AA4B3
:10240B00FEEF540F2EFF90003AF0A201920CD20D6A
:10241B00D20E7B057D021238869000497400F0A322
:10242B007448F0D20CD20DD20E7B017D057F0412C5
:10243B00201D90003BE075F00A8475F040A424A8A1
:10244B00F582E5F0340DAB82FAA20A920C7D1B7F6C
:10245B0002122ECC90003BE075F00A84AFF075F0C1
:10246B0040EFA424A8F582E5F0340DAB82FAA20A62
:10247B00920C7D2B7F02122ECC9000497402F0A39C
:10248B007488F0D20CC20DC20E7B027D087F06123F
:10249B00201D90003FE0B4071A9000497400F0A390
:1024AB007468F0D20CC20DC20E1B7D287F06122061
:1024BB001D802890003FE075F020A424E8F582E50C
:1024CB00F03400AF82900049F0A3EFF0D20CC20DB4
:1024DB00C20E7B017D287F0612201DD20CC20DC2BD
:1024EB000E7B09E4FD7F14123886900039E0FFA2C1
:1024FB0007920CC20DC20E7B19E4FD1238869000B8
:10250B00497400F0A37428F0D20CC20DC20E7B01EB
:10251B007D29E4FF12201D900039E024D0FFE43424
:10252B0007FEA3E0FD7C00A3E0FB7A0012166178A6
:10253B00317C007D017E007F061214AF900033E0EA
:10254B00B4011B9000497402F0A374C8F0D20CC202
:10255B000DD20E7B017D407F0412201D806C9000FC
:10256B0033E0B40B1B9000497402F0A374E8F0D273
:10257B000CC20DD20E7B017D407F0412201D804AC0
:10258B00900033E0B40C1B9000497403F0A3740863
:10259B00F0D20CC20DD20E7B017D407F0412201DA8
:1025AB008028900033E075F020A424E8F582E5F054
:1025BB003400AF82900049F0A3EFF0D20CC20DD2E1
:1025CB000E7B017D3F7F0412201D900034E0FF75D0
:1025DB00F00A8464017027EF75F00A84E5F0D39458
:1025EB0000401B9000497402F0A37428F0D20CC277
:1025FB000DD20E7B017D5F7F0412201D8060900049
:10260B0034E0FF75F00A8464027027EF75F00A84DA
:10261B00E5F0D39400401B9000497403F0A3744879
:10262B00F0D20CC20DD20E7B017D5F7F0412201DF8
:10263B00802C900034E075F00A8475F020A424E817
:10264B00F582E5F03400AF82900049F0A3EFF0D2B1
:10265B000CC20DD20E7B017D5F7F0412201D9000FA
:10266B0034E075F00A84E5F0701B9000497402F0B9
:10267B00A37428F0D20CC20DD20E7B017D6F7F04A8
:10268B0012201D802F900034E075F00A84AFF07596
:10269B00F020EFA424E8F582E5F03400AF8290003F
:1026AB0049F0A3EFF0D20CC20DD20E7B017D6F7FF0
:1026BB000412201D900031E0FEA3E0FF7C007D0C96
:1026CB00121558EDAE047805C333CE33CED8F924AA
:1026DB0068F58274033EAF82900049F0A3EFF0D20D
:1026EB000CC20DC20E7B017D68E4FF12201D900011
:1026FB0031E0FEA3E0FF7C007D0A121558EDAE041D
:10270B007805C333CE33CED8F924E8F58274043E72
:10271B00AF82900049F0A3EFF0D20CD20DD20E7B1A
:10272B00017D5F7F0212201D900031E0FEA3E0FFD0
:10273B007C007D0C121558EDAE047805C333CE33F7
:10274B00CED8F92428F58274063EAF82900049F06A
:10275B00A3EFF0D20CD20DD20E7B017D6F7F021254
:02276B00201D2F
:01276D002249
:1036160090003EE0FFA209920CC20DC20E7B6F7DA8
:103626000612388690003EE06006900026E06014A0
:1036360090003DE0FFA200920CC20DC20E7B577DAA
:103646000612388690003EE0700690003DE0600667
:10365600900026E0601490003CE0FFA20B920CC2A2
:103666000DC20E7B3F7D0612388690003EE0700C40
:1036760090003DE0700690003CE06006900026E079
:0F368600600C1223FB900026E0B40702E4F02250
:103A4200C203758911D2AB758DD9758BF0D2AF22B5
:102D5C001239F012391C900049743FF0D20C7B7F71
:102D6C00E4FDFF12377490004D743EF0D20DFBE47D
:102D7C00FD7F3E12302690004D7430F0D20D7B7FDB
:102D8C00FDE4FF12302690004D740FF0D20D7B7FC6
:102D9C00FDE4FF12302690004D7430F0D20D7B18FC
:102DAC007D0F7F1812302690004D7420F0D20D7BD1
:102DBC0080FD7F3F1230267B017A0079391234C1B5
:102DCC00123695900039E0FFA3E0FDA3E0FB123131
:102DDC007090003FEFF078467C007D017B017A001B
:102DEC0079397E007F071214AF1238D51237E112F1
:102DFC0023FB90003EE0FFA209920CC20DC20E7B99
:102E0C006F7D0612388690004B7407F0A374A8F0FF
:102E1C00A374FFF0A37400F0A3741EF0D20FC210C1
:102E2C00C2117B017D677F06121BED90003DE0FF18
:102E3C00A200920CC20DC20E7B577D0612388690F2
:102E4C00004B7407F0A374A8F0A374FFF0A37400F4
:102E5C00F0A3741EF0D20FC210C2117B017D4F7F04
:102E6C0006121BED90003CE0FFA20B920CC20DC2AF
:102E7C000E7B3F7D061238869000497402F0A374D5
:102E8C0048F0D20CD20DD20E7B017D407F02122075
:102E9C001D9000497402F0A37468F0D20CD20DD2CC
:102EAC000E7D507F0212201D9000497400F0A37417
:102EBC0048F0D20CC20DD20E7D4F7F0412201D2281
:1036950090003CE0FF75F00A84FEC454F0FEEF751F
:1036A500F00A84E5F02EF0A3E0FF75F00A84FEC46D
:1036B50054F0FEEF75F00A84E5F02EF0A3E0FF75F7
:1036C500F00A84FEC454F0FEEF75F00A84E5F02E8E
:1036D500F0900039E0FF75F00A84FEC454F0FEEF67
:1036E50075F00A84E5F02EF090003BE0FF75F00AD6
:1036F50084FEC454F0FEEF75F00A84E5F02EF02246
:1037E100900039E0FFC4540F75F00AA4FEEF540FA6
:1037F1002EF090003BE0FFC4540F75F00AA4FEEFD9
:10380100540F2EF0A3E0FFC4540F75F00AA4FEEF8D
:10381100540F2EF0A3E0FFC4540F75F00AA4FEEF7D
:10382100540F2EF0A3E0FFC4540F75F00AA4FEEF6D
:05383100540F2EF022EF
:102AA40030040EC204900026E004F0E0B40802E40E
:102AB400F0D20BD200D209D207D201D20A9000265A
:102AC400E0FF24FE601414601514601614601714DB
:102AD400601824057016C20B8012C200800EC20951
:102AE400800AC20A8006C2018002C20720080302CB
:102AF4002BCFC208EF24FE602914603614604314FF
:102B04007003022B87147003022B952405600302C3
:102B14002BA390003CE004F0E075F01884E5F0F09D
:102B2400807D90003DE004F0E075F03C84E5F0F039
:102B3400806D90003EE004F0E075F03C84E5F0F038
:102B4400805D900039E0FF12397FE433901068759E
:102B5400F00D121655E475F00DA42583F583C0839A
:102B6400C08290003AE0D082D0832582F582E43599
:102B740083F583E493FF90003BE08FF084E5F00459
:102B8400F0801C90003AE075F00C84E5F004F080CD
:102B94000E900039E004F0E075F06484E5F0F01282
:102BA4003695900039E0FFA3E0FDA3E0FB123170FD
:102BB40090003FEFF078467C007D017B017A00793C
:102BC400397E007F071214AF1238D5200603022D78
:102BD4005BC206900026E024FE602F14604214605D
:102BE40055147003022D00147003022D1C2405607B
:102BF40003022D2F90003CE02417FFE433FE7C00F9
:102C04007D18121558EDF0022D2F90003DE0243B65
:102C1400FFE433FE7C007D3C121558EDF0022D2FAD
:102C240090003EE0243BFFE433FE7C007D3C121523
:102C340058EDF0022D2F900039E0FF12397FE43374
:102C440090106875F00D121655E475F00DA42583E7
:102C5400F583C083C08290003AE0D082D08325827D
:102C6400F582E43583F583E493FF90003BE02FFF86
:102C7400E433CF24FFCF34FFFEC006C007900039F1
:102C8400E0FF12397FE43390106875F00D12165589
:102C9400E475F00DA42583F583C083C08290003AC7
:102CA400E0D082D0832582F582E43583F583E493F2
:102CB400FD7C00D007D006121558AF0590003BEFFD
:102CC400F07068900039E0FF12397FE433901068A7
:102CD40075F00D121655E475F00DA42583F583C027
:102CE40083C08290003AE0D082D0832582F582E4CA
:102CF4003583F583E49390003BF0802F90003AE015
:102D0400240BFFE433FE7C007D0C121558AF05EF55
:102D1400F07018740CF08013900039E02463FFE421
:102D240033FE7C007D64121558EDF0123695900048
:102D340039E0FFA3E0FDA3E0FB12317090003FEF08
:102D4400F078467C007D017B017A0079397E007F32
:082D5400071214AF1238D5225A
:03001B0002383672
:10383600C0E0C083C082C0D075D000C005C006C03D
:1038460007758DD9758BF01232AE900040E0FF30CF
:10385600E405D20454EFF0900040E0FF30E505D2D5
:103866000854DFF0900040E0FF30E605D20654BF72
:10387600F0D007D006D005D0D0D082D083D0E032A9
:101082000213CAE86480F8E933E83360110460F0BF
:10109200ED33EC337009E8FCE9FDEAFEEBFF2204D4
:1010A20060DED3EB9FEA9EE99DE8C2E78CF0C2F7CF
:1010B20095F0400CE8CCF8E9CDF9EACEFAEBCFFB9B
:1010C20012139585D0F05804700320D5B3E804704C
:1010D200075002B2D50213D492D5EC0460F7E4CCE7
:1010E200C0E0C398F8603B94186008400DD0E0FB64
:1010F2000213ACE4FBFAC9FC8028E830E406E4C938
:10110200FBE4CAFCE830E305E4C9CACBFCE85407B7
:101112006010F8C3E913F9EA13FAEB13FBEC13FCC2
:10112200D8F130F52FC3E49CFCEF9BFFEE9AFEED65
:1011320099FDD0E0FBEF4E4D4C701222DB030213FF
:10114200D1EC2CFCEF33FFEE33FEED33FDED30E757
:10115200EB0213ACEF2BFFEE3AFEED39FDD0E0FBD4
:1011620050130BBB00030213D4ED13FDEE13FEEF7D
:0811720013FFEC13FC0213ACA7
:10117A00EC4D6011E8497017ED33EC3304600DE46F
:10118A00FCFFFEFD22E933E8330470F80213CA12A9
:10119A00139558046009E4CC2481500628500902AA
:1011AA0013D42840030213D1C0E0EB4A7044B9803B
:1011BA0006D0E0FB0213C0EF4E701CBD8008EBFFA7
:1011CA00EAFEE9FD80EBE98DF0A4FEE5F002126388
:1011DA00E9CDF9EAFEEBFFEF89F0A4FCE5F0CE8950
:1011EA00F0A42EFFE435F0CD89F0A42DFEE435F00D
:1011FA008067EF4E7005BD80D780C3EF8BF0A4AC3B
:10120A00F0EE8BF0A42CFCE435F0F8EF8AF0A42C75
:10121A00E5F038FCE433CB8DF0A42CFCE5F03BF888
:10122A00EE8AF0A42CFCE5F038F8E433CF89F0A478
:10123A002CFCE5F038CF3400CE89F0A42FFFE5F07E
:10124A003EFEE433C98DF0A42EFEE5F039CD8AF0D6
:10125A00A42FFFE5F03EFEE43DFD33D0E0FB50074E
:10126A000BBB000F0213D4EC2CFCEF33FFEE33FE62
:06127A00ED33FD0213AC90
:101280000213D4EC5D046005E8590470030213CA2C
:10129000121395580460F6EC4860F2EC7004FDFE01
:1012A000FF22C860DB2481C85009C3986002500641
:1012B0000213D19850CAF582E9294B4A7005AB82D6
:1012C0000213C075F0007C1A7880C3EF9BEE9AED94
:1012D00099400DC3EF9BFFEE9AFEED99FDE842F0B9
:1012E000DC23ACF0D0E0FFD0E0FED0E0FDAB82200C
:1012F000E7101BEB60BAEC2CFCEF33FFEE33FEED96
:1013000033FD0213ACE803F830E705C0F075F000D8
:10131000EF2FFFEE33FEED33FD40B830E7C280AA79
:1013200075F020800E75F010800575F0087D007E48
:10133000007F003392D530D5031215E3EC33401013
:10134000EF33FFEE33FEED33FDEC33FCD5F0ED2251
:0E135000E5F0247EA2D513CC92E7CDCEFF228D
:10135E00EDD2E7CD33EC3392D524814006E4FFFE87
:10136E00FDFC22FCE4CFCECDCC24E0501174FF80E6
:10137E00EDC3CC13CCCD13CDCE13CECF13CF047083
:07138E00F030D5DE0215E38B
:10139500E9D2E7C933E833F892D5EDD2E7CD33EC9E
:0713A50033FC5002B2D52217
:1013AC00EC30E7100FBF000C0EBE00080DBD0004A2
:1013BC000BEB6014A2D5EB13FCED92E7FD2274FF4E
:1013CC00FCFDFEFF22E480F8A2D574FF13FC7D80A7
:0313DC00E480EFBB
:0300000002358A3C
:0C358A00787FE4F6D8FD7581220235D16F
:1013DF00E709F608DFFA8046E709F208DFFA803EF0
:1013EF0088828C83E709F0A3DFFA8032E309F608DD
:1013FF00DFFA8078E309F208DFFA807088828C8345
:10140F00E309F0A3DFFA806489828A83E0A3F608F8
:10141F00DFFA805889828A83E0A3F208DFFA804CD2
:10142F0080D280FA80C680D4806980F280338010A9
:10143F0080A680EA809A80A880DA80E280CA803312
:10144F0089828A83ECFAE493A3C8C582C8CCC5838A
:10145F00CCF0A3C8C582C8CCC583CCDFE9DEE7805A
:10146F000D89828A83E493A3F608DFF9ECFAA9F0D9
:10147F00EDFB2289828A83ECFAE0A3C8C582C8CC2F
:10148F00C583CCF0A3C8C582C8CCC583CCDFEADE48
:10149F00E880DB89828A83E493A3F208DFF980CCAA
:1014AF0088F0EF60010E4E60C388F0ED2402B404A3
:1014BF000050B9F582EB2402B4040050AF2323454A
:0614CF00822390142F732C
:1014D500C2D530F707B2D563F0FF05F030E70CB29F
:1014E500D5F4048463F0FF05F080018430D502F45F
:0214F5000422CF
:1014F700BB010CE58229F582E5833AF583E02250AA
:1015070006E92582F8E622BBFE06E92582F8E222F3
:0D151700E58229F582E5833AF583E493220D
:10152400BB010689828A83F0225002F722BBFE01A6
:02153400F322A0
:10153600F8BB010DE58229F582E5833AF583E8F0EB
:10154600225006E92582C8F622BBFE05E92582C897
:02155600F2227F
:10155800BC000BBE0029EF8DF084FFADF022E4CC77
:10156800F875F008EF2FFFEE33FEEC33FCEE9DEC40
:10157800984005FCEE9DFE0FD5F0E9E4CEFD22ED86
:10158800F8F5F0EE8420D21CFEADF075F008EF2FD0
:10159800FFED33FD4007985006D5F0F222C398FDC1
:0515A8000FD5F0EA225E
:1015AD00C2D5EC30E709B2D5E4C39DFDE49CFCEE59
:1015BD0030E715B2D5E4C39FFFE49EFE121558C364
:1015CD00E49DFDE49CFC800312155830D507C3E45F
:0615DD009FFFE49EFE22C8
:0E15E300C3E49FFFE49EFEE49DFDE49CFC2219
:1015F100EB9FF5F0EA9E42F0E99D42F0E89C45F050
:0116010022C6
:10160200E8600FECC313FCED13FDEE13FEEF13FFC6
:03161200D8F122EA
:10161500E86010ECA2E713FCED13FDEE13FEEF13EB
:04162500FFD8F022D8
:10162900E493FC740193FD740293FE740393FF2207
:10163900E493F8740193F9740293FA740393FB2207
:0C164900ECF0A3EDF0A3EEF0A3EFF02214
:0C165500A42582F582E5F03583F58322A0
:103596000239BCE493A3F8E493A34003F68001F256
:1035A60008DFF48029E493A3F85407240CC8C33336
:1035B600C4540F4420C8834004F456800146F6DF05
:1035C600E4800B0102040810204080903705E47E59
:1035D600019360BCA3FF543F30E509541FFEE493FA
:1035E600A360010ECF54C025E060A840B8E493A3C1
:1035F600FAE493A3F8E493A3C8C582C8CAC583CAEC
:10360600F0A3C8C582C8CAC583CADFE9DEE780BEA3
:013773000055
:00000001FF
